:020000040800F2
:100000000000052095DE0308392000083B20000889
:100010003D2000083F2000084120000800000000AB
:100020000000000000000000000000004320000865
:100030004520000800000000472000084920000873
:10004000E5DE0308E5DE0308E5DE0308E5DE030878
:10005000E5DE0308E5DE0308E5DE0308E5DE030868
:10006000E5DE0308E5DE0308E5DE0308E5DE030858
:10007000E5DE0308E5DE0308E5DE0308E5DE030848
:10008000E5DE0308E5DE0308E5DE0308E5DE030838
:10009000E5DE0308E5DE0308E5DE0308E5DE030828
:1000A000E5DE0308E5DE0308E5DE0308E5DE030818
:1000B000E5DE0308E5DE0308E5DE0308E5DE030808
:1000C000E5DE0308E5DE0308E5DE0308E5DE0308F8
:1000D000E5DE0308E5DE0308E5DE0308E5DE0308E8
:1000E000E5DE0308E5DE0308E5DE0308E5DE0308D8
:1000F000E5DE0308E5DE0308E5DE0308E5DE0308C8
:10010000E5DE0308E5DE0308E5DE0308E5DE0308B7
:10011000E5DE0308E5DE0308E5DE0308E5DE0308A7
:10012000E5DE0308E5DE0308E5DE0308E5DE030897
:10013000E5DE0308E5DE0308E5DE0308E5DE030887
:10014000E5DE0308E5DE0308E5DE030851200008CC
:10015000E5DE0308E5DE0308E5DE0308E5DE030867
:10016000E5DE0308E5DE0308E5DE0308E5DE030857
:10017000E5DE0308E5DE0308E5DE03080000000015
:10018000E5DE0308E5DE0308E5DE0308E5DE030837
:10019000E5DE0308E5DE0308E5DE0308E5DE030827
:1001A00061200008E5DE030871200008E5DE030891
:1001B000E5DE0308E5DE0308E5DE0308E5DE030807
:0801C000E5DE0308E5DE03089B
:1001D00010F8012B11F8013B012A28BF9A42F7D0F1
:1001E000D01A70470000000000000000000000006E
:1001F00001F0FF01102A2BDB10F0070F08D010F8D8
:10020000013B013A8B422DD010F0070F42B3F6D1DB
:10021000F0B441EA012141EA014122F007047FF0F4
:1002200000070023F0E80256083C85EA010586EA4B
:10023000010685FA47F5A3FA87F586FA47F6A5FA87
:1002400087F68EB9EED1F0BC01F0FF0102F0070293
:1002500032B110F8013B013A83EA010313B1F8D13E
:100260000020704701387047002D06BF354603381F
:10027000073815F0010F07D1013015F4807F02BF58
:10028000013015F4C03F0130F0BC0138704700BFA9
:10029000034613F8012B002AFBD1181A01387047C6
:1002A00081F0004102E000BF83F0004330B54FEA27
:1002B00041044FEA430594EA050F08BF90EA020F94
:1002C0001FBF54EA000C55EA020C7FEA645C7FEA27
:1002D000655C00F0E2804FEA5454D4EB5555B8BF4A
:1002E0006D420CDD2C4480EA020281EA030382EABB
:1002F000000083EA010180EA020281EA0303362D4D
:1003000088BF30BD11F0004F4FEA01314FF4801C1F
:100310004CEA113102D0404261EB410113F0004F31
:100320004FEA03334CEA133302D0524263EB4303E8
:1003300094EA050F00F0A780A4F10104D5F1200E86
:100340000DDB02FA0EFC22FA05F2801841F10001E1
:1003500003FA0EF2801843FA05F359410EE0A5F1B5
:1003600020050EF1200E012A03FA0EFC28BF4CF0E6
:10037000020C43FA05F3C01851EBE37101F000459C
:1003800007D54FF0000EDCF1000C7EEB00006EEBA9
:100390000101B1F5801F1BD3B1F5001F0CD3490833
:1003A0005FEA30004FEA3C0C04F101044FEA44528A
:1003B00012F5800F80F09A80BCF1004F08BF5FEA11
:1003C000500C50F1000041EB045141EA050130BDF1
:1003D0005FEA4C0C404141EB0101013C28BFB1F503
:1003E000801FE9D291F0000F04BF01460020B1FA4E
:1003F00081F308BF2033A3F10B03B3F120020CDA21
:100400000C3208DD02F1140CC2F10C0201FA0CF0FE
:1004100021FA02F10CE002F11402D8BFC2F1200C63
:1004200001FA02F120FA0CFCDCBF41EA0C01904019
:10043000E41AA2BF01EB0451294330BD6FEA040462
:100440001F3C1CDA0C340EDC04F11404C4F120024D
:1004500020FA04F001FA02F340EA030021FA04F35F
:1004600045EA030130BDC4F10C04C4F1200220FAB6
:1004700002F001FA04F340EA0300294630BD21FAF4
:1004800004F0294630BD94F0000F83F4801306BFBA
:1004900081F480110134013D4EE77FEA645C18BFAE
:1004A0007FEA655C29D094EA050F08BF90EA020F45
:1004B00005D054EA000C04BF1946104630BD91EA3D
:1004C000030F1EBF0021002030BD5FEA545C05D140
:1004D0004000494128BF41F0004130BD14F580047F
:1004E0003CBF01F5801130BD01F0004545F0FE41F3
:1004F00041F470014FF0000030BD7FEA645C1ABF28
:10050000194610467FEA655C1CBF0B46024650EA5E
:10051000013406BF52EA033591EA030F41F400218A
:1005200030BD00BF90F0000F04BF0021704730B510
:100530004FF4806404F132044FF000054FF00001E5
:1005400050E700BF90F0000F04BF0021704730B5A6
:100550004FF4806404F1320410F0004548BF40427B
:100560004FF000013EE700BF42004FEAE2014FEAD0
:1005700031014FEA02701FBF12F07F4393F07F4FAB
:1005800081F06051704732F07F4208BF704793F0AE
:100590007F4F04BF41F40021704730B54FF46074C1
:1005A00001F0004521F000411CE700BF50EA0102C4
:1005B00008BF704730B54FF000050AE050EA01026D
:1005C00008BF704730B511F0004502D5404261EBDD
:1005D00041014FF4806404F132045FEA915C3FF41E
:1005E000D8AE4FF003025FEADC0C18BF03325FEABB
:1005F000DC0C18BF033202EBDC02C2F1200300FA6C
:1006000003FC20FA02F001FA03FE40EA0E0021FA90
:1006100002F11444BDE600BF70B54FF0FF0C4CF47E
:10062000E06C1CEA11541DBF1CEA135594EA0C0F30
:1006300095EA0C0F00F0DEF82C4481EA030621EA6B
:100640004C5123EA4C5350EA013518BF52EA0335A6
:1006500041F4801143F4801338D0A0FB02CE4FF058
:100660000005E1FB02E506F00042E0FB03E54FF088
:100670000006E1FB03569CF0000F18BF4EF0010E80
:10068000A4F1FF04B6F5007F64F5407404D25FEA7C
:100690004E0E6D4146EB060642EAC62141EA55512F
:1006A0004FEAC52040EA5E504FEACE2EB4F1FD0C71
:1006B00088BFBCF5E06F1ED8BEF1004F08BF5FEAEF
:1006C000500E50F1000041EB045170BD06F00046A1
:1006D00046EA010140EA020081EA0301B4EB5C044E
:1006E000C2BFD4EB0C0541EA045170BD41F4801146
:1006F0004FF0000E013C00F3AB8014F1360FDEBF6B
:10070000002001F0004170BDC4F10004203C35DA46
:100710000C341BDC04F11404C4F1200500FA05F3C9
:1007200020FA04F001FA05F240EA020001F000426A
:1007300021F0004110EBD37021FA04F642EB0601E0
:100740005EEA430E08BF20EAD37070BDC4F10C040A
:10075000C4F1200500FA04F320FA05F001FA04F2CE
:1007600040EA020001F0004110EBD37041F10001BA
:100770005EEA430E08BF20EAD37070BDC4F12005C5
:1007800000FA05F24EEA020E20FA04F301FA05F22D
:1007900043EA020321FA04F001F0004121FA04F2D5
:1007A00020EA020000EBD3705EEA430E08BF20EAA5
:1007B000D37070BD94F0000F0FD101F000464000DF
:1007C00041EB010111F4801F08BF013CF7D041EA61
:1007D000060195F0000F18BF704703F00046520065
:1007E00043EB030313F4801F08BF013DF7D043EA36
:1007F0000603704794EA0C0F0CEA135518BF95EAEC
:100800000C0F0CD050EA410618BF52EA4306D1D172
:1008100081EA030101F000414FF0000070BD50EA91
:10082000410606BF1046194652EA430619D094EA1B
:100830000C0F02D150EA013613D195EA0C0F05D105
:1008400052EA03361CBF104619460AD181EA030159
:1008500001F0004141F0FE4141F470014FF0000011
:1008600070BD41F0FE4141F4780170BD70B54FF0AC
:10087000FF0C4CF4E06C1CEA11541DBF1CEA13552C
:1008800094EA0C0F95EA0C0F00F0A7F8A4EB05040E
:1008900081EA030E52EA03354FEA013100F0888005
:1008A0004FEA03334FF0805545EA131343EA1263CE
:1008B0004FEA022245EA111545EA10654FEA002683
:1008C0000EF000419D4208BF964244F1FD0404F53C
:1008D000407402D25B084FEA3202B61A65EB030598
:1008E0005B084FEA32024FF480104FF4002CB6EB55
:1008F000020E75EB030E22BFB61A754640EA0C00D5
:100900005B084FEA3202B6EB020E75EB030E22BF14
:10091000B61A754640EA5C005B084FEA3202B6EB55
:10092000020E75EB030E22BFB61A754640EA9C0014
:100930005B084FEA3202B6EB020E75EB030E22BFE4
:10094000B61A754640EADC0055EA060E18D04FEAA2
:10095000051545EA16754FEA06164FEAC30343EA42
:1009600052734FEAC2025FEA1C1CC0D111F4801F0F
:100970000BD141EA00014FF000004FF0004CB6E708
:1009800011F4801F04BF01430020B4F1FD0C88BFA7
:10099000BCF5E06F3FF6AFAEB5EB030C04BFB6EBB2
:1009A000020C5FEA500C50F1000041EB045170BDA5
:1009B0000EF0004E4EEA113114EB5C04C2BFD4EBD2
:1009C0000C0541EA045170BD41F480114FF0000E56
:1009D000013C90E645EA060E8DE60CEA135594EAD2
:1009E0000C0F08BF95EA0C0F3FF43BAF94EA0C0FD5
:1009F0000AD150EA01347FF434AF95EA0C0F7FF44A
:100A000025AF104619462CE795EA0C0F06D152EA9D
:100A100003353FF4FDAE1046194622E750EA410681
:100A200018BF52EA43067FF4C5AE50EA41047FF492
:100A30000DAF52EA43057FF4EBAE12E74FF0FF3CF7
:100A400006E000BF4FF0010C02E000BF4FF0010CC8
:100A50004DF804CD4FEA410C7FEA6C5C4FEA430C41
:100A600018BF7FEA6C5C1BD001B050EA410C0CBF90
:100A700052EA430C91EA030F02BF90EA020F0020F2
:100A8000704710F1000F91EA030F58BF994208BF59
:100A900090422CBFD8176FEAE37040F00100704716
:100AA0004FEA410C7FEA6C5C02D150EA013C07D16D
:100AB0004FEA430C7FEA6C5CD6D152EA033CD3D0B8
:100AC0005DF8040B704700BF8446104662468C46B2
:100AD0001946634600E000BF01B5FFF7B7FF0028E5
:100AE00048BF10F1000F01BD4DF808EDFFF7F4FF0E
:100AF0000CBF012000205DF808FB00BF4DF808ED99
:100B0000FFF7EAFF34BF012000205DF808FB00BFBB
:100B10004DF808EDFFF7E0FF94BF012000205DF8DD
:100B200008FB00BF4DF808EDFFF7CEFF94BF012092
:100B300000205DF808FB00BF4DF808EDFFF7C4FF8B
:100B400034BF012000205DF808FB00BF4FEA410CD4
:100B50007FEA6C5C02D150EA013C0AD14FEA430CB7
:100B60007FEA6C5C02D152EA033C02D14FF00000F4
:100B700070474FF0010070474FEA410212F5001232
:100B800015D211D56FF47873B3EB625212D94FEAD4
:100B9000C12343F0004343EA505311F0004F23FABE
:100BA00002F018BF404270474FF00000704750EA13
:100BB000013005D111F0004008BF6FF000407047D0
:100BC0004FF00000704700BF4FEA4102B2F1E0432E
:100BD00024BFB3F5001CDCF1FE5C0DD901F0004C24
:100BE0004FEAC0024CEA5070B2F1004F40EB830074
:100BF00008BF20F00100704711F0804F21D113F1A0
:100C00003872BCBF01F00040704741F480114FEAD8
:100C10005252C2F11802C2F1200C10FA0CF320FA61
:100C200002F018BF40F001004FEAC1234FEAD3237E
:100C300003FA0CFC40EA0C0023FA02F34FEA4303E8
:100C4000CCE77FEA625307D150EA01331EBF4FF071
:100C5000FE4040F44000704701F0004040F0FE408C
:100C600040F40000704700BF7BB972B90029BEBFD5
:100C700000204FF0004106E008BF00281CBF6FF0C5
:100C800000414FF0FF3000F057B8ADF1080C6DE9AE
:100C900004CE002909DB002B1ADB41F0CFFBDDF885
:100CA00004E0DDE9022304B07047404261EB4101FA
:100CB000002B1BDB41F0C2FBDDF804E0DDE9022381
:100CC00004B0404261EB4101524263EB4303704781
:100CD000524263EB430341F0B1FBDDF804E0DDE990
:100CE000022304B0404261EB41017047524263EB82
:100CF000430341F0A3FBDDF804E0DDE9022304B087
:100D0000524263EB4303704753B94AB9002908BF05
:100D100000281CBF4FF0FF314FF0FF3000F00CB83F
:100D2000ADF1080C6DE904CE41F088FBDDF804E07C
:100D3000DDE9022304B07047704700BF10B5054CD1
:100D4000237833B9044B13B10448AFF30080012377
:100D5000237010BD9403002000000000F826040852
:100D600008B5034B1BB103490348AFF3008008BD2E
:100D70000000000098030020F8260408064B074AEC
:100D80001A6000225A609A60DA604FF400611961BB
:100D90005A619A61704700BFC8070020002C0140CB
:100DA0002DE9F04180460E4615464F680AE055F899
:100DB000042BB9B2A0B23CF0D1FD0134B368A34218
:100DC000F5DA0137F368BB4201DB3468F6E74046E9
:100DD00011F0BFFCBDE8F0812DE9F04F2DED048B43
:100DE00085B09FED878A18EE100AFFF7BDFB044619
:100DF0000D46844E02460B4630463DF095FE224697
:100E00002B4630463DF07EFE9FED7F9A28EE098A04
:100E1000F3EE098A38EE288ABDEEC88A18EE103A39
:100E20001DB2DFF8F8B1DFF8F8912A465946484676
:100E30003DF08CFE754C4946206935F097FB744FA8
:100E40002A463968606832F02BFE606832F076FA24
:100E500080463968606832F075FA0646396860681D
:100E600032F038FE0190DFF8BCA1DAF80000FFF79D
:100E700069FB5DA3D3E90023FFF7CEFB5CA3D3E9B5
:100E80000023FFF7F3FCFFF79FFE00EE100A40F08F
:100E900095FC20EE090A30EE280ABDEEC00A10EEDD
:100EA000103A1FB23A46594648463DF04FFE494671
:100EB000606935F05BFB574D3A462968A06832F00F
:100EC000EFFDA06832F03AFA07462968A06832F0D0
:100ED00039FA02902968A06832F0FCFD0390DAF834
:100EE0000000FFF72FFB44A3D3E90023FFF794FB97
:100EF0003FA3D3E90023FFF7B9FCFFF765FE00EE3F
:100F0000100A40F05BFC20EE090A30EE280ABDEE24
:100F1000C00A10EE103A1DB22A46594648463DF026
:100F200015FE4946A06935F021FBDFF8FC902A4602
:100F3000D9F80010E06832F0B3FDE06832F0FEF955
:100F40008346D9F80010E06832F0FCF90546D9F87C
:100F50000010E06832F0BEFD731CB3FBF8F208FB32
:100F600012336FF00042019941F823200236B6FB9C
:100F7000F8F308FB136641F82620029C631CB3FBC0
:100F8000F7F107FB1133039E46F82320A31CB3FBA4
:100F9000F7F107FB113346F823206B1CB3FBFBF181
:100FA0000BFB113340F823200235B5FBFBF30BFBA1
:100FB000135540F82520DAF800300133CAF8003024
:100FC00007EE903AF8EEE77A9FED137AF4EEC77ADF
:100FD000F1EE10FA02DB0022CAF8002005B0BDECE9
:100FE000048BBDE8F08F00BFA43A55297A6A4F40C0
:100FF0000000000000C06240FBEBFF9EDB8F57400B
:10100000000000004427040800002042B816002019
:10101000D4030020D0030020000016434C2704080E
:10102000B8030020C4030020CC0300202DE9F04FBA
:1010300091B00BAD00240B946C60AC60EC602C6143
:101040009D4B1A6B42F010021A631A6B02F01002E9
:101050000092009A1A6B42F040021A631A6B02F077
:1010600040020192019A1A6B42F002021A631A6B53
:1010700002F002020292029A1A6B42F008021A630C
:101080001A6B02F008020392039A1A6B42F00402F0
:101090001A631A6B02F004020492049A1A6B42F06B
:1010A00001021A631A6B02F001020592059A1A6B8B
:1010B00042F400721A631A6B02F400720692069AE6
:1010C0001A6B42F480721A631A6B02F480720792F0
:1010D000079A1A6B42F480621A631A6B02F48062F8
:1010E0000892089A1A6B42F020021A631A6B02F0F7
:1010F00020020992099A1A6B42F080021A631B6B54
:1011000003F080030A930A9BDFF8D4910122202187
:10111000484605F0C6F922460C21684805F0C1F999
:1011200001220821664805F0BCF901224FF48051E4
:10113000624805F0B6F922464FF40051614805F0C7
:10114000B0F92246C821604805F0ABF94FF0080B12
:10115000CDF82CB00C940D9429465C4805F098F815
:1011600043F623430B934FF00208CDF830800D94E3
:101170004FF0030ACDF838A00A270F9729465448A4
:1011800005F086F84FF480530B930C940D94294688
:10119000504805F07DF840230B934FF490130C93C7
:1011A0000D942946484605F073F820230B93012639
:1011B0000C960D940E942946484605F069F841F2C4
:1011C0000C030B930C960D940E9429463B4805F0A6
:1011D0005FF84FF400530B930C940D9429463E484E
:1011E00005F056F8CDF82CB00C960D940E942946C7
:1011F000334805F04DF84FF0100BCDF82CB00C949F
:101200000D942946484605F043F848F204030B9331
:101210000C940D9429462B4805F03AF84FF40053EE
:101220000B930C960D940E942946264805F030F841
:101230004FF400530B934FF490130C930D942946E5
:101240001E4805F025F8CDF82CB0CDF830800D946F
:10125000CDF838A00F9729461A4805F019F8C82389
:101260000B930C960D940E942946174805F010F830
:1012700005230B93CDF830800D94CDF838A00F974F
:101280002946154805F004F804230B930C940D949B
:1012900029460D4804F0FCFF28230B93CDF830803D
:1012A0000D94CDF838A00F9729460C4804F0F0FFB4
:1012B00011B0BDE8F08F00BF0038024000200240AE
:1012C00000280240001C02400018024000100240AA
:1012D00000040240002402400008024000000240D6
:1012E000000C024070B5054616461C461A460FF023
:1012F000BDFB2246314628460FF0CEFB70BD0000F4
:1013000010B514464FF0FF3392B2024808F0B2FC19
:10131000204610BDC804002070B50D4616460024B6
:1013200000E00134B4420BDA4FF0FF3301222919F7
:10133000044808F002FD2B5D0D2B18BF0A2BF0D1DD
:10134000204670BDC804002072B6FEE700B585B027
:10135000002300930193029303931448144A0260FC
:101360004FF48032426083600361836180F82030F3
:10137000C362104A8262C3600122C26180F83030C9
:10138000426105F0FFFB68B9042300930123019338
:10139000002302936946054805F020FC20B905B0FA
:1013A0005DF804FBFFF7D0FFFFF7CEFF740C0020C1
:1013B000002201400100000F08B50848084B0360F7
:1013C000002303714371436183610123036205F0CC
:1013D000FBFC00B908BDFFF7B7FF00BF500C0020B1
:1013E0000030024008B50A480A4B036000234360FE
:1013F0008360C3600361436183610362436283620C
:10140000C362036305F05CFD00B908BDFFF79CFFF4
:10141000000C00200000055008B50C480C4B036080
:10142000002343608360C3608362C36203634363DA
:1014300005F096FD28B90121044805F05DFE10B9BC
:1014400008BDFFF781FFFFF77FFF00BFC00B002043
:1014500000B0024010B51448144B0360144B002236
:101460001A7080215970E1219970DA701A715A71DD
:1014700043604FF4000383600E4BC3600E4B036167
:1014800040F2F453436106F05BF858B90B4C382234
:10149000002120463DF015FC212323604FF440033A
:1014A000636110BDFFF750FF100B00200080024069
:1014B000B003002054020020F4020020BC0C0020E5
:1014C00010B588B001A9002301934B608B60CB60FD
:1014D0000B614B618B611348134A02604360836068
:1014E0000424C46010220261402242614FF4C072A1
:1014F0008261C3614FF4006202624FF48052426223
:10150000836202230193072202920394049203222E
:1015100005920693079306F030F908B908B010BD9C
:10152000FFF712FF0C040020400100A008B511488D
:10153000114B0360114B4360002383600122C260A2
:10154000036143618361C361036205F0C5F950B96A
:101550000021084805F024FA38B90021054805F0B3
:101560004CFA20B908BDFFF7EFFEFFF7EDFEFFF7DD
:10157000EBFE00BFBC0A002000540040FFEAC000A0
:1015800008B51148114B0360114B43600023836081
:101590000122C260036143618361C361036205F09C
:1015A0009BF950B90021084805F0FAF938B9002133
:1015B000054805F022FA20B908BDFFF7C5FEFFF780
:1015C000C3FEFFF7C1FE00BF680A0020005C0040B8
:1015D000FFEAC00010B52648264B03600023436095
:1015E0008360C3600361282242610922826135223F
:1015F000C2610B22026240F21522426240F21B12CB
:10160000826240F23522C26240F21D12026380F80B
:10161000343080F8353080F8363006F0CDF918BB1C
:10162000154900220A604FF4F07048608A604FF458
:101630008873CB6002240C61FF244C618A614FF4F3
:10164000C064CC6107240C624FF040444C62886255
:10165000CB6281F8302081F8312081F832200448B3
:1016600006F078FA10B910BDFFF76EFEFFF76CFEBA
:10167000C009002000680140D803002008B50C48CC
:101680000C4B036001234360042383601023C36079
:10169000182303614FF4A063436100238361C36196
:1016A000036206F0BBFA00B908BDFFF74DFE00BFAC
:1016B00074090020001000A010B590B000240B9415
:1016C0000C940D940E940F940A9428222146684697
:1016D0003DF0F7FA3148324B036044607F2383606A
:1016E000FF23C36004614461846106F041FB00286C
:1016F00047D100238DF82C308DF82D308DF82E3009
:101700000E930F9301220BA9244806F08DFB0028AD
:1017100039D101228DF828208DF829208DF82A2032
:1017200000238DF82B300AA91C4806F0DDFB60BBB6
:1017300000238DF800308DF801308DF802300193D0
:101740000393049305930693079301228DF82020B9
:101750004FF4807309936946104806F013FCB0B942
:101760004FF400730993012269460C4806F00AFC05
:1017700078B902220021094806F0C0FC58B910B01F
:1017800010BDFFF7E1FDFFF7DFFDFFF7DDFDFFF720
:10179000DBFDFFF7D9FDFFF7D7FD00BF540900209F
:1017A0000028004008B52348234B0360002303634F
:1017B0004360402242638363C36383600361436188
:1017C00083611E4AC261C36043628362C3620822AE
:1017D0000264012242648364C364036543658365D4
:1017E000C265036606F0E8FC00BB1548154B0360B4
:1017F0000023036303224260402242638363C36386
:101800000122826003618361C36043628362C362B9
:101810000821016442648364C3640365436583658E
:10182000C265036606F0C8FC10B908BDFFF78CFD61
:10183000FFF78AFDD0080020045C014000EE0200A2
:101840004C080020245C014008B50A484FF04023B2
:101850000360002343608360C3600361436183616D
:10186000C36103624362836207F0E2FE00B908BD10
:10187000FFF76AFD7C07002008B50F480F4B036097
:101880004FF482734360002383604FF44072C26060
:10189000036143614FF400728261C361036243627A
:1018A00083620722C26203630823436307F0F8FEE2
:1018B00000B908BDFFF748FD1807002000380040B8
:1018C00010B59AB000241694179418941994139490
:1018D000149415940C940D940E940F9410941194E8
:1018E00012942C22214601A83DF0EBF92D482E4BF5
:1018F0000360446084604FF6FF73C3600461446119
:10190000846101F01FFE00283FD14FF480531693ED
:1019100016A9244801F058FF002838D1214801F0C9
:1019200041FE002835D1002313931493159313A976
:101930001C4801F0C9FF00282DD160230C93002220
:101940000D920E920F921092119212920CA91548BC
:1019500001F090FE08BB00230193029303930493CC
:1019600005934FF400520692079308934FF00072CC
:1019700009920A930B9301A90A4801F0F5FF70B987
:10198000084801F07BF81AB010BDFFF7DDFCFFF747
:10199000DBFCFFF7D9FCFFF7D7FCFFF7D5FCFFF71F
:1019A000D3FC00BFCC0600200000014000B58FB082
:1019B00000230A930B930C930D93079308930993B9
:1019C00000930193029303930493059306931E4897
:1019D0004FF080420260436083604FF0FF32C2608C
:1019E0000361836101F0AEFD20BB4FF480530A9385
:1019F0000AA9154801F0E8FEF0B9134801F0D2FD3C
:101A0000E0B900230793099307A90F4801F05CFF91
:101A1000B0B96023009300220192029204926946B9
:101A2000094801F027FE68B9074801F027F80FB010
:101A30005DF804FBFFF788FCFFF786FCFFF784FCEA
:101A4000FFF782FCFFF780FC8006002000B58FB016
:101A500000230A930B930C930D9307930893099318
:101A600000930193029303930493059306931E48F6
:101A70001E4A0260436083604FF6FF72C2600361DA
:101A8000836101F05FFD20BB4FF480530A930AA9E4
:101A9000154801F099FEF0B9134801F083FDE0B953
:101AA00000230793099307A90F4801F00DFFB0B970
:101AB00060230093002201920292049269460A4830
:101AC00001F0D8FD68B9084800F0D8FF0FB05DF804
:101AD00004FBFFF739FCFFF737FCFFF735FCFFF796
:101AE00033FCFFF731FC00BF340600200004004047
:101AF00000B58FB000230A930B930C930D930793BB
:101B0000089309930093019302930393049305931D
:101B100006931E481E4A0260436083604FF0FF3206
:101B2000C2600361836101F00DFD28BB4FF4805357
:101B30000A930AA9154801F047FEF8B9134801F0C5
:101B400031FDE8B900230793099307A90F4801F075
:101B5000BBFEB8B960230093002301930293049362
:101B60000C226946094801F085FD68B9074800F074
:101B700085FF0FB05DF804FBFFF7E6FBFFF7E4FB22
:101B8000FFF7E2FBFFF7E0FBFFF7DEFBE8050020D5
:101B9000000C004000B589B0002304930593069320
:101BA00007930193029303931348144A026043601E
:101BB00083604FF6FF72C26003614361836101F08D
:101BC000C1FC98B94FF48053049304A90A4801F06A
:101BD000FBFD68B9002301930293039301A9064812
:101BE00001F072FE30B909B05DF804FBFFF7ACFB01
:101BF000FFF7AAFBFFF7A8FB9C05002000040140AB
:101C000000B589B0002301930293039304930593D5
:101C1000069307931048114A0260436083604FF6B1
:101C2000FF72C2600361836101F0BCFC80B9602374
:101C30000193002202920392059201A9064801F045
:101C400019FD38B9044800F019FF09B05DF804FB2C
:101C5000FFF77AFBFFF778FB5005002000180040E3
:101C600008B50B480B4B03604FF4E133436000238E
:101C70008360C36003610C2242618361C3610362BC
:101C8000436208F019F900B908BDFFF75DFB00BF1A
:101C9000C80400200010014008B50B480B4B03603E
:101CA0004FF4E133436000238360C36003610C227F
:101CB00042618361C3610362436208F0FDF800B9C9
:101CC00008BDFFF741FB00BF4004002000140140A5
:101CD00010B594B008AC3022002120463CF0F1FF52
:101CE00000230393049305930693079304F0E0FC09
:101CF000234B1A6C42F080521A641B6C03F0805321
:101D00000193019B1F4B1A6842F440421A601B6802
:101D100003F440430293029B092308934FF480325B
:101D2000099201220D9202220E924FF480010F912E
:101D3000192110914FF4C8711191129213932046FA
:101D400003F0B0FBA8B904F0BBFCA0B90F230393C8
:101D500002230493002305934FF4A05306934FF4FA
:101D600080530793062103A803F00AFE28B914B094
:101D700010BDFFF7E9FAFFF7E7FAFFF7E5FA00BF52
:101D8000003802400070004010B5A2B001AC8422BF
:101D9000002120463CF095FF0D4B01934FF4C0739A
:101DA0000693052308930223079303230993012332
:101DB0000B934FF400330C934FF0006320932046B5
:101DC00003F0BAFE08B922B010BDFFF7BDFA00BF9C
:101DD0000800B0002DE9F041ADF5CC4D86B004F01F
:101DE00049FDFFF775FFFFF7CFFFFFF71FF9FFF77B
:101DF000ADFAFFF7E1FAFFF7F5FAFFF70DFBFFF792
:101E000029FBFFF75DFBFFF791FBFFF7B9FBFFF73E
:101E1000E1FBFFF733FCFFF74FFCFFF7C3FCFEF7D6
:101E2000ADFFFFF711FDFFF727FDFFF749FDFFF7B6
:101E3000BDFDFFF70BFEFFF75BFEFFF7ABFEFFF705
:101E4000DFFEFFF70DFFFFF727FF01F0E5F801F0D8
:101E5000C3F86F4B1B69022B01D0FFF775FA6C4C6E
:101E6000278DA68D3BF0D6FF6A4B1A6B42F4805249
:101E70001A631B6B03F480530293029B3BF06AFED0
:101E8000616A00203BF016FD3BF092FD00203BF024
:101E900051FD25F09DFE60482DF0DAF94FF4887170
:101EA0004FF4F07010F06EFE0546002400944FF4DD
:101EB000CC43224603A910F0E6FB5849284610F00F
:101EC000C9FB3BF0D7FC564D0121686831F024FA7C
:101ED0004FF40033224621466868FFF703FA642175
:101EE000686831F02DFC0121A86831F015FA4FF433
:101EF000003322462146A868FFF7F4F96421A86858
:101F000031F01EFC0121E86831F006FA4FF400338D
:101F100022462146E868FFF7E5F96421E86831F0D8
:101F20000FFCD5F80480204628F0DCFC46F20C6358
:101F30006B441870C0F3072346F20D626A441370B5
:101F4000C0F3074046F20E636B441870224646F217
:101F50000C636B441968404631F02CFC314B18601F
:101F6000D5F80880092028F0BDFC46F210636B44C8
:101F70001870C0F3072346F211626A441370C0F36D
:101F8000074046F212636B441870224646F2106313
:101F90006B441968404631F00DFC234B1860D5F8AE
:101FA0000C80022028F09EFC46F214636B441870EB
:101FB000C0F3072346F215626A441370C0F307406A
:101FC00046F216636B441870224646F214636B4463
:101FD0001968404631F0EEFB144B1860686831F028
:101FE000A9FB22463221124829F00EFF114B18603E
:101FF000A64218BFA74203D1FFF7A6F904F058FC88
:1020000029F074FFB0F1FF3FF8D12120F6E700BFBF
:10201000D803002000380240A5680008A10D000880
:10202000B8160020D4030020D0030020CC030020E9
:10203000D90D0008C8030020FEE7FEE7FEE7FEE733
:10204000FEE770477047704708B504F01FFC08BDF5
:1020500008B5024802F0E6FB08BD00BFFC0C0020FA
:1020600008B5024805F009FD08BD00BFC009002001
:1020700008B5024804F0A1FF08BD00BFC00B002056
:102080002DE9F04186B0002301930293039304935A
:1020900005932F4B1B6813B106B0BDE8F0812C4BA4
:1020A00001221A602B4B9A6B42F001029A639B6BE0
:1020B00003F001030093009B4FF683730193022703
:1020C0000297032604960C25059501AC214622486B
:1020D00004F0DEF848F23313019302974FF0000842
:1020E000CDF80C800496059521461C4804F0D0F8E4
:1020F0004CF2037301930297CDF80C80049605957A
:102100002146174804F0C4F84FF63F0301930297A5
:10211000CDF80C80049605952146124804F0B8F8D5
:10212000282301930297CDF80C800496059521464B
:102130000D4804F0ADF8082301930297CDF80C8008
:10214000049605952146094804F0A2F8A4E700BFCB
:10215000F80C002000380240001002400018024035
:10216000000C024000140240001C02400008024023
:1021700082B00A4B1A6C42F080521A641A6C02F058
:1021800080520092009A5A6C42F480425A645B6C0E
:1021900003F480430193019B02B070470038024072
:1021A00030B589B0002303930493059306930793F6
:1021B00002681B4B9A4201D009B030BD03F58B3346
:1021C0005A6C42F480625A645A6C02F48062009243
:1021D000009A1A6B42F020021A631A6B02F0200276
:1021E0000192019A1A6B42F001021A631B6B03F011
:1021F00001030293029B4FF4F863039303250495B4
:1022000003AC2146074804F043F8012303930495E7
:10221000002305932146044804F03AF8CCE700BFB8
:102220000022014000140240000002400268094BF5
:102230009A4200D0704782B003F500631A6B42F4F3
:1022400080521A631B6B03F480530193019B02B00D
:10225000704700BF00300240F0B58DB000230793F7
:10226000089309930A930B930268394B9A4201D061
:102270000DB0F0BD374B5A6B42F001025A635A6BF6
:1022800002F001020192019A1A6B42F010021A63E5
:102290001A6B02F010020292029A1A6B42F00802C4
:1022A0001A631A6B02F008020392039A1A6B42F047
:1022B00040021A631A6B02F040020492049A1A6BED
:1022C00042F080021A631A6B02F080020592059AAE
:1022D0001A6B42F001021A631B6B03F001030693B1
:1022E000069B60230793022708970D260B9607ADE0
:1022F0002946194803F0CCFF0823079308970024C8
:1023000009940A940B962946144803F0C1FF4FF430
:1023100000730793089709940A940B96294610486E
:1023200003F0B6FF4FF4BC430793089709940A944F
:102330000B9629460B4803F0ABFF502307930897F1
:1023400009940A940B962946074803F0A1FF8FE7EA
:10235000000005500038024000100240000C02400E
:1023600000180240001C02400000024002680E4BB0
:102370009A4200D0704700B583B0A3F5F0431A6BC2
:1023800042F400021A631B6B03F400030193019BE8
:10239000002211465A2004F015FA5A2004F022FABD
:1023A00003B05DF804FB00BF00B002402DE9F0412E
:1023B0008CB000230793089309930A930B93026848
:1023C000324B9A4202D00CB0BDE8F081A3F59043A5
:1023D0001A6B42F000721A631A6B02F000720192DB
:1023E000019A1A6B42F080621A631A6B02F08062E3
:1023F0000292029A1A6B42F000621A631A6B02F0A0
:1024000000620392039A1A6B42F040021A631A6B3D
:1024100002F040020492049A1A6B42F004021A631A
:102420001A6B02F004020592059A1A6B42F001023F
:102430001A631B6B03F001030693069B4FF4D04312
:1024400007930227089703260A960B250B9507ACDE
:1024500021460F4803F01CFF3223079308974FF0E3
:102460000008CDF824800A960B952146094803F010
:102470000FFF862307930897CDF824800A960B95C3
:102480002146054803F004FF9DE700BF008002409D
:1024900000180240000802400000024010B5AAB037
:1024A0000446002125912691279128912991842283
:1024B00004A83CF006FC2368304A934204D0304A1A
:1024C00093422ED02AB010BD4FF48043049304A849
:1024D00003F032FB10BB2B4C236B43F0020323634E
:1024E000236B03F002030093009B4FF4407325938A
:1024F000122326930123279300232893042329934F
:1025000025A9214803F0C4FE236C43F4001323647F
:10251000236C03F400130193019BD3E7FEF714FF30
:10252000D9E74FF48033049304A803F005FB10BBF4
:10253000144C236B43F080032363236B03F080036D
:102540000293029B4FF4C073259312232693012319
:102550002793032328930423299325A90B4803F0E9
:1025600097FE236C43F400032364236C03F40003FD
:102570000393039BA6E7FEF7E7FED9E7005400406C
:10258000005C00400038024000040240001C024091
:10259000F0B58DB000230793089309930A930B932A
:1025A00002683F4B9A4201D00DB0F0BD03F5504395
:1025B0005A6C42F080625A645A6C02F08062019256
:1025C000019A1A6B42F010021A631A6B02F01002A1
:1025D0000292029A1A6B42F400721A631A6B02F4A6
:1025E00000720392039A1A6B42F480621A631A6BA8
:1025F00002F480620492049A1A6B42F040021A6359
:102600001A6B02F040020592059A1A6B42F480722E
:102610001A631B6B03F480730693069B10230793C6
:10262000022608960E270B9707AD29461D4803F092
:102630002FFE4EF6FF7307930896002409940A9420
:102640000B972946184803F023FEF72307930896B3
:1026500009940A940B972946144803F019FE4FF485
:1026600080530793089609940A9409230B932946EB
:102670000F4803F00DFE4FF4464307930896099464
:102680000A940B9729460B4803F002FE2246214686
:10269000582004F097F8582004F0A4F884E700BF0D
:1026A000006801400010024000240240002802405F
:1026B00000180240002002402DE9F0478AB00023B4
:1026C000059306930793089309930268304B9A4247
:1026D00002D00AB0BDE8F0872E4B9A6B42F002029E
:1026E0009A639A6B02F002020192019A1A6B42F00D
:1026F00010021A631A6B02F010020292029A1A6B0D
:1027000042F002021A631A6B02F002020392039A69
:102710001A6B42F008021A631B6B03F00803049360
:10272000049B4FF0040ACDF814A002260696032558
:1027300008950927099705AC2146174803F0A8FD1D
:102740004023059306964FF00008CDF81C800895AD
:102750000A230993DFF848902146484603F098FD84
:10276000CDF814A00696CDF81C800895099721464F
:10277000484603F08DFD4FF4605305930696CDF85F
:102780001C80089509972146044803F081FDA0E7C5
:10279000001000A00038024000100240000C02406F
:1027A0000004024010B5A2B004468422002101A812
:1027B0003CF087FA22680B4B9A4201D022B010BD40
:1027C000202301934FF400730D9301A803F0B4F993
:1027D00028B9054A136F43F400431367EEE7FEF789
:1027E000B3FDF6E70028004000380240F0B589B09C
:1027F00000230393049305930693079302681E4BEB
:102800009A4201D009B0F0BD03F586335A6C42F408
:1028100000625A645A6C02F400620092009A1A6BC9
:1028200042F004021A631A6B02F004020192019A48
:102830001A6B42F008021A631B6B03F00803029341
:10284000029B4FF4F853039302270497032606963E
:102850000C2507950DEB05042146084803F018FDEB
:1028600004230393049700230593069607952146B6
:10287000034803F00DFDC5E7002C014000080240AD
:10288000000C024010B5A8B0044600212391249109
:10289000259126912791842202A83CF012FA236800
:1028A000B3F1402F01D028B010BD4FF080730293D8
:1028B00064230393022306930493059301230B934C
:1028C00002A803F039F900BB114B1A6C42F48032B4
:1028D0001A641A6C02F480320092009A1A6B42F069
:1028E00008021A631B6B03F008030193019B80230A
:1028F00023930223249300232593269308232793CD
:1029000023A9044803F0C4FCCDE7FEF71DFDDBE777
:1029100000380240000C024070B588B000230393D9
:10292000049305930693079302681C4B9A4201D0C7
:1029300008B070BD03F500331A6C42F480421A648B
:102940001A6C02F480420092009A1A6B42F4807270
:102950001A631A6B02F480720192019A1A6B42F0A8
:1029600002021A631B6B03F002030293029B022410
:10297000039404940526079603AD2946084803F0FE
:1029800087FC4FF44043039304940023059306937C
:1029900007962946034803F07BFCC9E7003800404E
:1029A000002002400004024086B00368234A93429C
:1029B00016D0B3F1804F1FD0214A934228D0214A2C
:1029C000934230D0204A934214D1204B5A6C42F0AB
:1029D00002025A645B6C03F002030593059B09E055
:1029E0001A4B5A6C42F001025A645B6C03F001030B
:1029F0000193019B06B0704703F50E331A6C42F049
:102A000001021A641B6C03F001030293029BF1E7BD
:102A10000E4B1A6C42F002021A641B6C03F00203A4
:102A20000393039BE6E7094B1A6C42F008021A6411
:102A30001B6C03F008030493049BDBE700000140D8
:102A400000040040000C0040000401400038024037
:102A50000268094B9A4200D0704782B003F50833F0
:102A60001A6C42F040021A641B6C03F0400301939D
:102A7000019B02B0704700BF0018004000B58BB04A
:102A800000230593069307930893099303683E4A2E
:102A900093420ED0B3F1804F21D03C4A934235D0BF
:102AA0003B4A934246D03B4A934257D00BB05DF825
:102AB00004FB394B1A6B42F001021A631B6B03F0E3
:102AC00001030093009B4FF4807305930223069348
:102AD0000123099305A9314803F0DAFBE6E703F582
:102AE0000E331A6B42F001021A631B6B03F00103F1
:102AF0000193019B4FF400430593022306930123A6
:102B0000099305A9254803F0C3FBCFE7224B1A6BB5
:102B100042F002021A631B6B03F002030293029B52
:102B20001023059302230693099305A91C4803F07B
:102B3000AFFBBBE7184B1A6B42F480721A631B6B36
:102B400003F480730393039B0123059302230693ED
:102B5000099305A9134803F09BFBA7E70E4B1A6BDB
:102B600042F080021A631B6B03F080030493049B02
:102B700040230593022306930923099305A90A48D4
:102B800003F086FB92E700BF000001400004004014
:102B9000000C0040001800400038024000000240D5
:102BA0000004024000200240001C0240F0B5ADB01D
:102BB000044600212791289129912A912B91842262
:102BC00006A83CF07EF82368394A934204D0394A7B
:102BD000934241D02DB0F0BD4023069306A802F0E9
:102BE000ABFF002835D1344B5A6C42F010025A64C6
:102BF0005A6C02F010020192019A1A6B42F0020222
:102C00001A631A6B02F002020292029A1A6B42F0E5
:102C100001021A631B6B03F001030393039B8023E0
:102C2000279302272897002429942A9407262B9675
:102C300027AD2946214803F02BFB4FF4007327935F
:102C4000289729942A942B9629461D4803F020FBA7
:102C5000C0E7FEF779FBC6E74FF40063069306A8CA
:102C600002F06AFF08BB144B5A6C42F020025A640F
:102C70005A6C02F020020492049A1A6B42F0040289
:102C80001A631B6B03F004030593059BC023279372
:102C9000022328930023299303232A9308232B93A9
:102CA00027A9084803F0F4FA94E7FEF74DFBDAE7AA
:102CB00000100140001401400038024000040240AE
:102CC000000002400008024008B5FFF7D9F908BD2E
:102CD00010B588B004460268224B9A4205D022689B
:102CE000214B9A421FD008B010BD204B1B684BB936
:102CF0001F4A516C41F400015164526C02F400020D
:102D00000192019A0133194A1360F02303930223BD
:102D100004930023059306930A23079303A91548F8
:102D200003F0B6FADBE7114B1B684BB9104A516C44
:102D300041F400015164526C02F400020292029AC2
:102D400001330A4A13604FF4806303930223049310
:102D50000023059306930A23079303A9064803F06B
:102D600097FAC0E7045C0140245C0140F40C0020A9
:102D700000380240002002400018024010B588B020
:102D80000023039304930593069307930368B3F119
:102D9000A04F01D008B010BD03AA194C236B43F01B
:102DA00001032363236B03F001030093009B4FF4A3
:102DB000E053039302230493032306930A23079308
:102DC0001146104803F064FA636B43F080036363B9
:102DD000636B03F080030193019B636C43F48043B6
:102DE0006364636C03F480430293029B00221146E8
:102DF000432003F0E7FC432003F0F4FCCAE700BFE4
:102E0000003802400000024008B5D0F8DC0307F0AB
:102E100085F908BD08B5D0F8DC0307F093F908BDC3
:102E200008B5D0F8DC0307F097F908BD704708B57E
:102E3000D0F8DC0307F07BF908BD08B5D0F8DC0357
:102E400007F079F908BD000090F8CC33012B01D0D0
:102E50000020704710B504460F48C0F8DC43C4F8A2
:102E6000D0034FF0A0430360082343710123C371D3
:102E70000023837102224272837200F025FE40B962
:102E8000054801F0B1FD0146204607F044F9002055
:102E900010BDFEF759FAF3E7FC0C002008B5D0F896
:102EA000D00301F09BFD08BD08B5D0F8D00301F0B8
:102EB0008EFD08BD08B590F8CC33012B04D0C82096
:102EC00003F0F6FC002008BD084600F063F8F6E7C2
:102ED000D0F8D033C1EB011003EB8000C07D38B1D6
:102EE000C1EB011103EB810383F83C200020704704
:102EF000C1EB011103EB810383F83D20F6E70228C3
:102F000005D8DFE800F00504020001207047022028
:102F1000704708B5D0F8D00301F032FDFFF7EFFF9E
:102F200008BD08B5D0F8D00301F03FFDFFF7E7FF7B
:102F300008BD10B584B0D0F8D003BDF8204002948D
:102F40009DF81C4001949DF81840009401F05DFD2F
:102F5000FFF7D5FF04B010BD08B5D0F8D00300F0DE
:102F6000A1FDFFF7CCFF08BD10B584B0D0F8D003A9
:102F70009DF824400394BDF820400294079C0194DE
:102F80009DF81840009400F0E6FDFFF7B8FF04B08C
:102F900010BD000008B5024600B101222021024800
:102FA00003F07FFA08BD00BF000C024004290CD0DA
:102FB000052902D0022904D07047064B03221A705B
:102FC0007047044B02221A707047024B01221A709C
:102FD000704700BFDC10002008B501220B490C48E7
:102FE00007F02BF848B90B49094807F045F838B9FC
:102FF000074807F086F830B908BDFEF7A5F9F2E7F3
:10300000FEF7A2F9F4E7FEF79FF9F5E7AD2F000808
:10301000E01000200C00002008B50349034806F02A
:10302000B1FF034B187008BDB8140020442F0408EA
:10303000BC14002000B583B0009313460A46014635
:10304000034805F07FFE00B1012003B05DF804FBEA
:10305000C807002000B583B0009313460A46014616
:10306000034805F093FF00B1012003B05DF804FBB5
:10307000C807002008B5034806F0C8FA043818BF8E
:10308000012008BDC807002008B50146014806F028
:103090004AFA08BDC807002000B583B001238DF8A7
:1030A000073000F09DF810B900238DF807309DF827
:1030B000070003B05DF804FB38B5FFF7EDFF01280A
:1030C00002D00225284638BD0446074806F010FA0B
:1030D00005460028F6D14FF40061034806F036FAA1
:1030E0000028EFD02546EDE7C807002008B5074BBC
:1030F00001221A70FFF7BEFF20B9044A137803F0CB
:10310000FE031370014B187808BD00BF00000020BB
:1031100010B50446074B01221A70FFF7CDFF10B11E
:10312000044B187810BD2046FFF7E0FF014B1870E4
:10313000F6E700BF0000002008B5FFF7D7FF08BD85
:1031400008B5084611461A464FF0FF33FFF772FFE5
:1031500030B9FFF78FFF03460028FAD1184608BDA3
:103160000123FBE708B5084611461A464FF0FF3326
:10317000FFF770FF30B9FFF77DFF03460028FAD153
:10318000184608BD0123FBE730B589B0134B18780A
:1031900010F001041BD1154603291CD8DFE801F00B
:1031A00002040A100C4613E06846FFF76DFF069B09
:1031B0002B600DE06846FFF767FF079B2B8007E059
:1031C0006846FFF761FF079B5B0A2B6000E0032462
:1031D000204609B030BD0424FAE700BF00000020FB
:1031E00008B54FF40051044803F054F908B9012020
:1031F00008BD0020FCE700BF0008024070B4046A6C
:10320000036A23F00103036242688569124B2B4075
:103210000D681D4324F002048B6823430F4C104EAD
:10322000B04218BFA0420CBF0124002405D123F0F6
:103230000803CE681E4326F004032CB122F440722A
:103240004C6914438A692243426085614A6842633B
:10325000036270BC704700BF8CFFFEFF000001409E
:103260000004014070B4036A026A22F480720262B0
:103270004268C569144C2C400E68264323F4007341
:103280008C6843EA0423114C114DA84218BFA04298
:103290000CBF0124002406D123F40063CD6843EA67
:1032A000052323F480633CB122F440524C6942EA86
:1032B00004128C6942EA04124260C6614A68C26321
:1032C000036270BC704700BF8CFFFEFF000001402E
:1032D0000004014070B4036A026A22F48052026260
:1032E0004468C5690D4A2A400D6842EA052223F464
:1032F00000538D6843EA0533094E0A4DA84218BFB2
:10330000B04204D124F480444D6944EA85144460F9
:10331000C2614A680264036270BC7047FF8CFFFEA2
:10332000000001400004014070B4036A026A22F404
:10333000803202624468426D0D4D15400A682A438E
:1033400023F400338D6843EA05430A4E0A4DA84230
:1033500018BFB04204D124F480344D6944EA0524F6
:10336000446042654A688265036270BC704700BF72
:103370008FFFFEFF000001400004014070B4036AAB
:10338000026A22F4801202624468456D0D4A2A40A6
:103390000D6842EA052223F400138D6843EA0553C1
:1033A000094E0A4DA84218BFB04204D124F480242B
:1033B0004D6944EA8524446042654A68C2650362F7
:1033C00070BC7047FF8FFFFE000001400004014009
:1033D00010B4036A046A24F001040462846924F0CE
:1033E000F00C4CEA021223F00A030B4382610362E1
:1033F0005DF8044B704710B4036A046A24F01004AB
:103400000462846924F4704C4CEA023223F0A00375
:1034100043EA0113826103625DF8044B70478368DD
:1034200023F070030B4343F00703836070470000F1
:1034300070B403683C4A904214BF00220122B0F1EC
:10344000804F14BF144642F00104ACB9374DA84276
:1034500014BF00250125364EB0420DD065B905F1E7
:10346000804505F58235A84214BF0025012506F5E3
:103470000066B04200D01DB123F070034D682B43AD
:10348000002C33D1294CA04214BF00240124284D24
:10349000A8422BD054BB04F1804404F58234A042EE
:1034A00014BF0024012405F50065A8421ED0ECB924
:1034B000204CA04214BF0024012405F59A35A842EF
:1034C00014D09CB91C4CA04214BF0024012405F563
:1034D0000065A8420AD04CB9184CA04214BF002481
:1034E0000124A5F59635A84200D01CB123F4407301
:1034F000CC68234323F080034C6923438C68C46267
:103500000C6884620E4CA04208BF42F001020AB16E
:103510000A690263026842F0040202600122426109
:10352000036070BC704700BF00000140000800400D
:10353000000400400044014000180040002000400A
:103540000004014060B310B5044690F83D3013B359
:10355000022384F83D30214651F8040BFFF768FF41
:10356000012384F8483084F83E3084F83F3084F8F2
:10357000403084F8413084F8423084F8433084F895
:10358000443084F8453084F8463084F8473084F875
:103590003D30002010BD80F83C30FFF705FAD7E73A
:1035A0000120704760B310B5044690F83D3013B366
:1035B000022384F83D30214651F8040BFFF738FF11
:1035C000012384F8483084F83E3084F83F3084F892
:1035D000403084F8413084F8423084F8433084F835
:1035E000443084F8453084F8463084F8473084F815
:1035F0003D30002010BD80F83C30FFF729FAD7E7B6
:103600000120704770B4036A026A22F0100202625D
:1036100042688569144C2C400D6844EA052523F066
:1036200020038C6843EA0413104C114EB04218BFBB
:10363000A0420CBF0124002406D123F08003CE68F1
:1036400043EA061323F040033CB122F440624C6984
:1036500042EA84028C6942EA8402426085614A68D7
:103660008263036270BC7047FF8CFFFE0000014064
:103670000004014038B590F83C30012B00F09580F3
:1036800004460D46012380F83C30142A00F288805D
:10369000DFE802F00B8686861F868686348686865D
:1036A000488686865D86868671000068FFF7A6FDDF
:1036B0002268936943F0080393612268936923F0B9
:1036C000040393612268936929690B439361002085
:1036D00067E00068FFF796FF2268936943F4006390
:1036E00093612268936923F48063936122689369EC
:1036F000296943EA01239361002052E00068FFF743
:10370000B1FD2268D36943F00803D3612268D3690D
:1037100023F00403D3612268D36929690B43D36181
:1037200000203EE00068FFF7D5FD2268D36943F42E
:103730000063D3612268D36923F48063D361226874
:10374000D369296943EA0123D361002029E0006895
:10375000FFF7EAFD2268536D43F0080353652268C2
:10376000536D23F0040353652268536D29690B439D
:103770005365002015E00068FFF700FE2268536DD6
:1037800043F4006353652268536D23F480635365EB
:103790002268536D296943EA01235365002000E044
:1037A0000120002384F83C3038BD0220FCE710B42F
:1037B000846824F47F4C42EA03220A4342EA0C0262
:1037C00082605DF8044B704790F83C30012B76D056
:1037D00010B50446012380F83C30022380F83D30C8
:1037E00002689068374B034093600B68602B4CD0A5
:1037F00023D8402B54D011D8202B03D00AD80BB19A
:10380000102B05D119462068FFF709FE002028E09B
:10381000012026E0302BF5D0012022E0502B0AD1E8
:10382000CA6849682068FFF7D3FD50212068FFF778
:10383000F6FD002015E0012013E0B3F5805F3AD0DB
:10384000B3F5005F14D0702B37D1CB684A68896814
:103850002068FFF7ACFF2268936843F0770393601A
:103860000020012384F83D30002384F83C3010BD53
:10387000CB684A6889682068FFF799FF22689368D7
:1038800043F4804393600020EBE7CA6849682068EE
:10389000FFF7B1FD60212068FFF7C1FD0020E0E7E0
:1038A000CA6849682068FFF793FD40212068FFF748
:1038B000B6FD0020D5E70020D3E70120D1E70220A4
:1038C000704700BF8800FEFF90F83C20012A45D0D9
:1038D00070B40346012280F83C20022280F83D208B
:1038E0000268506894681E4E1E4DAA4218BFB2422C
:1038F00003D120F470004D68284320F070000D685B
:10390000284350601A681648B2F1804F18BF8242AF
:1039100017D0A0F57C40824213D000F5806082422F
:103920000FD000F5806082420BD000F578408242D3
:1039300007D000F57050824203D0A0F59430824247
:1039400004D124F08004896821439160012283F826
:103950003D20002083F83C0070BC70470220704777
:10396000000001400004014090F83C30012B3CD0A5
:1039700030B40246012380F83C30CB6823F4407316
:103980008868034323F480634868034323F4006397
:103990000868034323F480530869034323F4005366
:1039A0004869034323F48043886A034323F4702364
:1039B000886943EA004310680D4D0E4CA04218BFC1
:1039C000A8420CD123F470034C6A43EA045323F059
:1039D0008073CC69234323F00073096A0B4343646B
:1039E000002082F83C0030BC70470220704700BFC6
:1039F0000000014000040140F8B50668346A04F094
:103A00000F07C4F34343C4F30A14022B00D0F8BDDC
:103A10000546002CFBD0C7EB071300EB8303D96AE4
:103A20000029F4D0C7EB071300EB83039A6B224401
:103A30005B6B9A4207D9C7EB071700EB8705042396
:103A400085F84C30E3E72246304601F01CF9C7EB1D
:103A5000071305EB8303DA6A2244DA629A6B224485
:103A60009A6306EB4716D6F810251B8DA342CED1DC
:103A70000B4B1340002BCAD0D6F8003523F08043FF
:103A800043F00043C6F80035C7EB071305EB83038B
:103A900093F83C2082F0010283F83C20B7E700BF96
:103AA0000000F81F90F8D433012B0BD010B504465A
:103AB000012380F8D433006801F0B7FA002084F8BD
:103AC000D40310BD02207047002842D030B583B027
:103AD0000446056890F8D533BBB1032384F8D53389
:103AE000B5F1A04F16D0206801F068F8237C8DF85E
:103AF0000030231D0ECB206801F018F868B10223B6
:103B000084F8D533012003B030BD80F8D433FFF7FB
:103B100035F9E2E70023A371E5E70121206801F010
:103B2000E6F820B1022384F8D5330120EBE7237CAB
:103B30008DF80030231D0ECB206801F009F918B96B
:103B4000012384F8D533DEE7022384F8D53301203E
:103B5000D9E70120704738B59DF81040BDF81850DE
:103B6000C1EB011C00EB8C0C8CF817208CF8263074
:103B700094B9C1EB011C00EB8C0C4FF0030E8CF8D8
:103B80002AE09DF81CE08CF819E0032B00F2B180CC
:103B9000DFE803F00BA84C7AC1EB011C00EB8C0CA6
:103BA0004FF0020E8CF82AE0EFE7012C40F0A180E4
:103BB000F2B935B9C1EB011300EB8303012283F89D
:103BC0003D20C1EB011300EB830393F83D303BB97B
:103BD000C1EB011300EB8303002283F82A2088E065
:103BE000C1EB011300EB8303022283F82A2080E05B
:103BF000C1EB011300EB83039B7E012B79D1C1EB59
:103C0000011300EB830393F83C303BB9C1EB011384
:103C100000EB8303002283F82A206AE0C1EB011342
:103C200000EB8303022283F82A2062E0AAB9C1EBE9
:103C3000011300EB830393F83D3033B9C1EB01135B
:103C400000EB830383F82A2053E0C1EB011300EB60
:103C50008303022283F82A204BE0C1EB011300EB1F
:103C6000830393F83C303BB9C1EB011300EB8303B2
:103C7000002283F82A203CE0C1EB011300EB830310
:103C8000022283F82A2034E0AAB9C1EB011300EB29
:103C9000830393F83D3033B9C1EB011300EB830389
:103CA00083F82A2025E0C1EB011300EB83030222F5
:103CB00083F82A201DE0C1EB011300EB830393F886
:103CC0003C303BB9C1EB011300EB8303002283F8C6
:103CD0002A200EE0C1EB011300EB8303022283F8DC
:103CE0002A2006E0C1EB011300EB8303002283F8D6
:103CF0002A20C1EB011300EB8303059ADA625D63AE
:103D0000002283F84C209A63597583F84D20C1EB4B
:103D1000011189001031014482790431006801F0F9
:103D200015FA38BD30B583B004460568D5F840347F
:103D30000193D5F840340093009B23F02E030093A9
:103D4000019B13F0020F07D0019B13F0010F25D147
:103D5000009B43F002030093019B13F0080F10D067
:103D6000009B43F008030093019B13F0040F2DD038
:103D7000637A022B15D0E379012B22D02046FFF77E
:103D800056F8019B13F0200F03D0009B43F0200353
:103D90000093009BC5F8403403B030BDFFF73AF8FC
:103DA000D6E7019B03F4C023B3F5802F04D0012193
:103DB000206801F045F8E1E70221206801F040F8B1
:103DC000DCE74EF66022C5F80424D7E72046FFF76B
:103DD00034F8D6E7F8B505460C460668304600F0DC
:103DE00079FF10F0040F21D006EB44130422C3F82E
:103DF0000825C4EB041305EB8303072283F84D2049
:103E00002146286801F011F92146286800F062FF78
:103E100010F4007F6CD02146286801F006F906EB0B
:103E200044164FF40073C6F80835F8BD21462868DB
:103E300000F050FF10F4807F11D006EB44134FF4D4
:103E40008072C3F80825C4EB041305EB8303082232
:103E500083F84D202146286801F0E7F8D4E7214691
:103E6000286800F037FF10F0080F10D006EB44135D
:103E70000822C3F80825C4EB041305EB83030622CC
:103E800083F84D202146286801F0CFF8BCE7214691
:103E9000286800F01FFF10F4806F11D006EB441368
:103EA0004FF48062C3F80825C4EB041305EB8303C9
:103EB000092283F84D202146286801F0B6F8A3E7CF
:103EC0002146286800F006FF10F0800F9CD006EB1A
:103ED00044138022C3F80825C4EB041305EB8303C5
:103EE000072283F84D202146286801F09EF88BE7D1
:103EF0002146286800F0EEFE10F0010F7CD006EBA2
:103F0000441606F5A0672023BB60C4EB041305EB41
:103F10008303DB7E012B1DD0AB794BB1C4EB0413C3
:103F200005EB83031A6B3969C1F31201521A9A63C4
:103F3000C4EB041305EB8303012283F84D20002119
:103F40005964BA6093F82630032B14D8DFE803F0E5
:103F50000D250D25C4EB041305EB83030022DA764F
:103F60007B6823F480337B60D6E72146286801F024
:103F70005CF81023BB60AB79012B20D0C4EB041399
:103F800005EB830393F83C30C4EB041405EB840485
:103F900083F0010384F83C3047E7D6F8003543F05E
:103FA0000053C6F80035C4EB041305EB830301226C
:103FB00083F84C2021462846FEF738FFDBE7C4EBA8
:103FC000041205EB8202936B128D1344013BB3FB89
:103FD000F2F313F0010F3FF428AFC4EB041305EB29
:103FE000830393F83C30C4EB041405EB840483F0A2
:103FF000010384F83C3018E72146286800F06AFE87
:1040000010F0200F1ED006EB44162023C6F808350A
:10401000C4EB041305EB83039B7E012B7FF405AFF8
:10402000C4EB041305EB83030122DA76C4EB04131B
:1040300005EB8303032283F84D202146286800F016
:10404000F4FFF2E62146286800F044FE10F0020F6B
:1040500000F0278106EB441606F5A0620223936068
:10406000C4EB041305EB830393F84D30013B082B9D
:104070001ED801A151F823F09D4000082B3E0008F6
:10408000FB4100085542000859410008C74000089C
:10409000DD40000887420008DD400008C4EB04133F
:1040A00005EB8303022283F84D20012283F84C2084
:1040B000C4EB041305EB830393F84C2021462846F8
:1040C000FEF7B4FEB1E6C4EB041305EB8303022252
:1040D00083F84D20052283F84C20E9E7C4EB041354
:1040E00005EB8303022183F84D10596C01315964AB
:1040F00002291BD9C4EB041305EB83030021596487
:104100009B7E012B07D0C4EB041305EB8303042231
:1041100083F84C20CCE7C4EB041305EB8303D9767A
:104120001977536823F480335360ECE7C4EB04132E
:1041300005EB8303022283F84C2093F82630934248
:1041400018BF002BB4D1D6F8003523F0804343F0DC
:104150000043C6F80035ABE7C4EB041305EB83035B
:10416000022183F84D10DB7E012BA1D1C4EB041397
:1041700005EB830393F82630032B18D03C2303FB75
:104180000453022283F84C20C4EB041305EB830391
:1041900093F82630022B18BF002B89D1D6F80035B2
:1041A00023F0804343F00043C6F8003580E73C210C
:1041B00001FB04518B6C01338B64022B16D90B4627
:1041C00000219964D9765B6C022B04D83C2303FB55
:1041D000045301211977536823F4803353603C233F
:1041E00003FB0453042283F84C20CDE73C2303FB5C
:1041F0000453022283F84C20C6E7C4EB041305EBFA
:104200008303022183F84D10DB7E012B7FF450AF36
:10421000C4EB041305EB830383F84C10516841F49D
:1042200080315160D16841F04001D160D16821F006
:104230002001D16093F82630022B18BF002B7FF4A9
:1042400037AFD6F8003523F0804343F00043C6F87B
:1042500000352DE7C4EB041305EB8303022283F83A
:104260004D2083F84C2093F82630934218BF002B42
:104270007FF41EAFD6F8003523F0804343F00043AF
:10428000C6F8003514E7C4EB041305EB83030222E0
:1042900083F84D205A6C01325A64042283F84C2072
:1042A00006E72146286800F015FD10F0400F18D0F1
:1042B00006EB44134022C3F80825C4EB041305EBB6
:1042C0008303052283F84D209B7E2BB9C4EB041396
:1042D00005EB830300225A642146286800F0A5FEFE
:1042E000A3E52146286800F0F5FC10F0100F3FF41C
:1042F0009CADC4EB041305EB830393F82630032B2A
:1043000028D0022B18BF002B17D1C4EB041305EBE8
:10431000830300225A64AB792BB13C2303FB045383
:10432000DB7E012B09D13C2303FB0453042283F8D9
:104330004D202146286800F078FEC4EB041305EBFD
:104340008303DB7E012B12D006EB44131022C3F84B
:1043500008256AE53C2303FB045300225A64042227
:1043600083F84D202146286800F05FFEE5E7C4EBA6
:10437000041305EB83050023EB7606EB4413D3F817
:10438000042522F48032C3F80425D3F80C2542F02A
:104390002002C3F80C25D7E770B505460C46066821
:1043A000304600F097FC10F0040F10D006EB4416D6
:1043B0000423C6F80835C4EB041305EB8303072276
:1043C00083F84D202146286800F02FFE70BD21465D
:1043D000286800F07FFC10F0200F4AD006EB44164E
:1043E0002023C6F80835C4EB041305EB83035B7E7A
:1043F000012B2DD0C4EB041305EB83039B7E012B13
:10440000E4D1C4EB041305EB8303DB7E002BDDD189
:10441000C4EB041305EB830393F82630012B05D07E
:10442000C4EB041305EB83030122DA762601C4EB07
:10443000041305EB8303032283F84D2021462868EB
:1044400000F0F3FD361B05EB860600237364BDE721
:10445000C4EB041305EB830300225A76022283F88F
:104460004C20032283F84D202146286800F0DDFD12
:10447000C0E72146286800F02DFC10F4007F0AD028
:1044800006EB44164FF40073C6F808352146286839
:1044900000F0CBFD9AE72146286800F01BFC10F0E5
:1044A000010F3BD0C4EB041305EB830300225A64D5
:1044B0002146286800F00EFC10F0400F0AD0C4EB33
:1044C000041305EB830301225A7606EB44134022C2
:1044D000C3F80825C4EB041305EB8303DB7E6BB143
:1044E000C4EB041305EB83030022DA7606EB4413D6
:1044F000D3F8042522F48032C3F8042506EB4416D1
:104500000122C6F80825C4EB041305EB830383F8E6
:104510004D202146286800F088FD57E7214628688D
:1045200000F0D8FB10F0400F1ED0C4EB041305EBD5
:104530008303052283F84D209B7E2BB9C4EB041323
:1045400005EB830301225A76C4EB041305EB8303C6
:1045500000225A642146286800F067FD06EB4416E5
:104560004023C6F8083531E72146286800F0B2FB41
:1045700010F0080F10D006EB44130822C3F80825EA
:10458000C4EB041305EB8303062283F84D20214678
:10459000286800F04AFD19E72146286800F09AFBD8
:1045A00010F0100F20D0C4EB041305EB830300229E
:1045B0005A64042283F84D205B7E5BB9C4EB04137C
:1045C00005EB83031B7E2BB9C4EB041305EB8303BC
:1045D00001225A762146286800F027FD06EB441395
:1045E0001022C3F80825F1E62146286800F072FB86
:1045F00010F0800F38D0AB79F3B1C4EB041205EBA7
:104600008202536C01335364022B20D83C2303FBFA
:104610000453022283F84C2006EB4412D2F80035F2
:1046200023F0804343F00043C2F8003506EB441307
:104630008022C3F80825C9E63C2303FB0453072264
:1046400083F84D202146286800F0EFFCEEE73C237C
:1046500003FB045300225A64042283F84C202146B1
:104660002846FEF7E3FBE1E72146286800F032FB2D
:1046700010F4806F10D03C2303FB0453092283F80D
:104680004D202146286800F0D0FC06EB44134FF47F
:104690008062C3F8082599E62146286800F01AFBD5
:1046A00010F0020F3FF492AE06EB441606F5A0623E
:1046B000022393603C2303FB045393F84D30013BEA
:1046C000082B3FF683AE01A151F823F0F146000814
:1046D000CD4300085F4700087D470008A747000852
:1046E000CB470008DF470008CD430008DF4700083C
:1046F0003C2303FB0453022283F84D20012283F85C
:104700004C2093F82630023BDBB2934253D8A97970
:1047100041B93C2303FB045393F83D2082F001028E
:1047200083F83D20012946D13C2303FB04535B6BF6
:10473000002B40D03C2202FB0452128D1344013B5B
:10474000B3FBF2F313F0010F35D03C2303FB04530A
:1047500093F83D2082F0010283F83D202BE03C23BA
:1047600003FB0453022283F84D20DB7E012B22D170
:104770003C2303FB045383F84C201CE03C2303FB45
:104780000453022183F84D1083F84C10DB7E012B7B
:1047900011D13C2303FB04530021D976536823F441
:1047A0008033536007E03C2303FB0453022283F869
:1047B0004D2083F84C203C2303FB045393F84C20FA
:1047C00021462846FEF732FB00E63C2303FB045358
:1047D000022283F84D20052283F84C20EBE73C238E
:1047E00003FB0453022283F84D205A6C01325A64B1
:1047F000022A08D93C2303FB045300225A640422F2
:1048000083F84C20D7E73C2303FB0453022283F8B0
:104810004C20D6F8003523F0804343F00043C6F81F
:104820000035C8E7F8B504460568284600F05BFA8D
:10483000012800D0F8BD206800F048FA0028F9D01F
:10484000206800F043FA10F4001F03D023684FF4EF
:1048500000125A61206800F039FA10F4801F03D06A
:1048600023684FF480125A61206800F02FFA10F08C
:10487000806F03D023684FF080625A61206800F097
:1048800025FA10F0020F02D0236802225A61206834
:1048900000F01CFA10F0005F08D023684FF00052BF
:1048A0005A61D5F8403413F0010F25D0206800F08C
:1048B0000DFA10F0807F32D1206800F007FA10F076
:1048C000080F30D1206800F001FA10F0007F31D1DC
:1048D000206800F0FBF910F0100FABD0226893694C
:1048E00023F0100393612046FFF786F8226893694E
:1048F00043F0100393619DE71021284600F064F90E
:10490000284600F086F9637A022B03D02046FEF792
:1049100087FACBE70121206800F092FAF6E72046FB
:10492000FFF700FAC8E72046FEF76EFA2368082270
:104930005A61C7E7206800F073FB0746002604E0D1
:10494000F1B22046FFF728FD01366379B34212D950
:1049500006F00F0327FA03F313F0010FF4D005EB71
:104960004613D3F8003513F4004FE9D0F1B22046D6
:10497000FFF730FAE8E723684FF000725A61A7E7C3
:1049800090F8D433012B0ED010B50446012180F8E5
:10499000D413006800F075FA206800F009F90020CF
:1049A00084F8D40310BD0220704790F8D433012B53
:1049B0000BD010B50446012380F8D433006800F012
:1049C00027FD002084F8D40310BD02207047C1EBFE
:1049D000011100EB810090F84C007047C1EB011110
:1049E00000EB8100806B704708B5006800F077FA33
:1049F00008BDC1EB011200EB820200209076D07658
:104A000082F8250082F8240070472DE9F04F85B028
:104A10001F469DF838A09DF83C90BDF840B090F836
:104A2000D433012B54D005460C461646D8460123F4
:104A300080F8D433C1EB011300EB830300225A76D4
:104A40001F75597583F8269006F07F029A75FFF757
:104A5000D0FF16F0800F29D1C4EB041305EB8303BC
:104A60000022DA75286800F02FFAB9F1010F24D07E
:104A7000C4EB041305EB830383F818A01FFA88F333
:104A8000C4EB041205EB820213850293CDF8049067
:104A9000CDF800A03B4632462146286800F024FAB3
:104AA000002385F8D43305B0BDE8F08FC4EB0413C0
:104AB00005EB83030122DA75D4E7BAF1010F08BFD1
:104AC0000028D5D1BBF1BC0FD2D94FF0BC08CFE73D
:104AD0000220E8E782B000230193019B0133019398
:104AE000019BB3F1706F1CD80369002BF5DA0A2320
:104AF000019302E0019B013B0193019B002BF9D143
:104B0000036943F001030361019B01330193019B9E
:104B1000B3F1706F08D8036913F0010FF4D10020CE
:104B200000E0032002B070470320FBE784B010B51B
:104B3000044603A880E80E009DF81130012B1FD118
:104B4000A36B23F48033A363E268184B1340E36044
:104B5000E36823F44013E3609DF81830012B0AD07A
:104B60002046FFF7B7FF9DF80E30012B14D0BDE8AB
:104B7000104004B07047E36843F48013E360EFE74C
:104B8000E36843F04003E3602046FFF7A3FFA36B15
:104B900043F48033A363E6E7A36843F00603A3600E
:104BA000A36843F02003A360E1E700BFBFFFBDFFA0
:104BB000836843F00103836000207047836823F01B
:104BC000010383600020704782B000230193019BA2
:104BD00001330193019BB3F1706F15D80369002B6A
:104BE000F5DA00230193890141F020010161019B65
:104BF00001330193019BB3F1706F08D8036913F07F
:104C0000200FF4D1002000E0032002B07047032001
:104C1000FBE782B000230193019B01330193019BC9
:104C2000B3F1706F13D80369002BF5DA00230193F9
:104C300010230361019B01330193019BB3F1706F5A
:104C400008D8036913F0100FF4D1002000E003200E
:104C500002B070470320FBE710B59DF8084084B907
:104C600003334FEA930E4FF0000C08E000EB0233E1
:104C700003F5805351F8044B1C600CF1010CF44512
:104C8000F4D3002010BD10B5844608464FEA920EBA
:104C900002F00302002305E00CF58051096840F89A
:104CA000041B01337345F7D37AB10CF5805CDCF853
:104CB00000400021CBB2DB0024FA03F300F8013BF3
:104CC0000131013A92B2002AF4D110BD42698069E3
:104CD0001040704700EB411000F5A063D0F80805C4
:104CE000DB6818407047406900F00100704738B534
:104CF0000546C36823F0C043C360012913D019BB24
:104D0000C36843F08043C36000240A2001F0D0FD53
:104D10000A342846FFF7E7FF08B1C72CF5D9C82C9D
:104D200014D0002038BDC36843F00053C360002492
:104D30000A2001F0BDFD0A342846FFF7D4FF012800
:104D4000EDD0C72CF4D9EAE70120EBE70120E9E731
:104D500084B038B5044605A880E80E000023C4F8E6
:104D6000003EA36B23F40013A363E36813F0400F2A
:104D700011D19DF81730012B06D0D4F8003423F060
:104D80000403C4F800340CE0D4F8003443F0040306
:104D9000C4F8003405E0D4F8003423F00403C4F868
:104DA000003410212046FFF70FFF054600B1012512
:104DB0002046FFF72EFF00B10125002209E004EB99
:104DC00042134FF0FF31C3F808150021C3F80C154A
:104DD00001329DF815309342F1D80023A3614FF0C2
:104DE000FF336361124B9C4217D08023636203F54B
:104DF000C003A3620F4BC4F800319DF816301BB9F5
:104E0000A36943F01003A361A2690B4B1343A36191
:104E10002846BDE8384004B070474FF40073636221
:104E200003F18073A362054BC4F80031E5E700BFCE
:104E300000000440E0004000080020A30003E00060
:104E400000F5806CD0F8003423F00303C0F8003480
:104E5000D0F8003401F003021343C0F800340129F4
:104E600007D002290BD141F27073CCF80430002036
:104E700070474BF68033CCF8043000207047012097
:104E8000704782B000230193D0F840340193019B16
:104E900023F02E030193019B13F4805F01D10129BC
:104EA0000CD0019B13F4805F05D021B9019B23F442
:104EB0008053C0F84034002002B07047019B43F497
:104EC0008053C0F84034ECE782B000230193D0F85F
:104ED000403401930198C0F3414002B0704700F59F
:104EE0008060806880B270472DE9F84391461C4687
:104EF0009DF8245000EB411606F5A0634FF0FF32F9
:104F00009A60032D00F28380DFE805F002730265EA
:104F100040F29D42DA6019F0800F50D13F4A904232
:104F200053D0002700225A60DA6842F00202DA60A9
:104F3000D0F8183401F00F0101228A401343C0F861
:104F40001834836943F00073836119F0800F60D1D6
:104F50004FF00008FFF7B8FF9DF82030022B14BF78
:104F600000230123022808BF0023002B54D04FF454
:104F70000032A30503F0FE534FEAC92909F4F049B2
:104F800043EA0903A90401F440210B43BDF82810AA
:104F9000C1F30A010B4343EA0803134343F48013AC
:104FA000C6F80035012D18BF032D05D1D6F8003500
:104FB00043F00053C6F800353846BDE8F883DA6898
:104FC00042F48072DA600027ACE7DA6842F06002EF
:104FD000DA600027A6E740F29D62DA6019F0800FE0
:104FE00001D100279EE7DA6842F48072DA60002778
:104FF00098E740F22522DA6019F0800F01D10027EE
:1050000090E7DA6842F4C072DA6000278AE7012785
:1050100088E74FF400489DE70022AAE7000004401B
:1050200000F58060406980B2704770B483B000239F
:10503000019300EB411101F5A062D1F80035C3F3F3
:105040008143D1F800555468866816F0200F07D0C8
:10505000ED0FE40F24B9CDB3032B18BF012B35D0CE
:10506000022B18BF002B35D1D1F8003543F0804317
:10507000C1F80035836813F0200F21D1C36A13F4FF
:105080007F0F16D1D1F8003523F00043C1F8003569
:10509000D1F8003543F00043C1F80035019B0133DE
:1050A0000193019BB3F57A7F10D81368002BF5DBD1
:1050B0000CE0D1F8003543F00043C1F8003505E0BD
:1050C000D1F8003543F00043C1F80035002003B0AB
:1050D00070BC7047D1F8003543F08043C1F800350B
:1050E000D0F8103413F47F0F16D1D1F8003523F027
:1050F0000043C1F80035D1F8003543F00043C1F852
:105100000035019B01330193019BB3F57A7FDDD814
:105110001368002BF5DBD9E7D1F8003543F00043E5
:10512000C1F80035D2E7000000EB4110064AC0F894
:105130001025D0F8003523F0804343F00043C0F839
:1051400000350020704700BF0000088070B584B0B3
:105150004B78A74CA04216D08C79012C2ED00C6A2B
:10516000002C66D08D8A04EB050C0CF1FF3CBCFBD7
:10517000F5FC1FFA8CFCBCF5807F5CD92D02CD615B
:105180004FF4807C57E0012A07D08C88B4F5807FEB
:10519000E2D11946FFF7C8FF27E18C7C022C18BF2B
:1051A000002CD9D18C79002CD6D100EB4314D4F843
:1051B0000C5525F07005C4F80C55CDE7CC7824B11A
:1051C0008C8ACC614FF0010C3CE08C7C012C06D029
:1051D000012A26D00C6ACC614FF0010C32E00C6A37
:1051E000BC2C0FD98C8ACC610C62CC68013C012CA0
:1051F00003D90124CC60A44624E00224CC604FF003
:10520000010C1FE0CC61CC68013C012C04D90424C2
:10521000CC604FF0010C15E00324CC604FF0010C82
:1052200010E00D6A8C8AA542D4D9CC614FF0010CF4
:1052300008E04FF0010CCD78002D60D08C8A04FB83
:105240000CF4CC61CC69C4F312046A4D05EACC4578
:105250002C4391F816C04FEA4C7C0CF0C04C00EB8C
:10526000431303F5A06E44EA0C04CEF8104012B1CB
:105270008C69CEF8144000F58065AC68D3F8006501
:1052800026F00056C3F80065D3F800656FEA040CF9
:105290004FEA4C7C0CF0005C46EA0C06C3F8006553
:1052A0008C79012C2DD00024CEF80440D3F8004591
:1052B0000394039C24F080440394CC78002C7DD08C
:1052C000039C44F400440394039C44F0004403947E
:1052D000039CC3F80045002A40F08780CB78002B60
:1052E00040F083800B6A002B7FD0CA79002A7CD1E2
:1052F0008A7C032A72D8DFE802F0667F667FCC6181
:10530000A0E74E7C0C7C44EAC61444F00044CEF87E
:105310000440DEF80C4044F06004CEF80C40CC7938
:10532000012C15D08C7C032C18BF012C02D1CC7918
:10533000012C1DD08C7C012CB8D1CC78002CB5D19F
:10534000CC68013C032CB1D8DFE804F01C232A31DF
:10535000CC78002CE6D1DEF8044044F48034CEF85A
:105360000440DEF80C4044F04004CEF80C40D9E78D
:10537000CC78012CDED1DEF8044044F48034CEF841
:105380000440D7E7DEF8044044F40044CEF804407B
:105390008CE7DEF8044044F00E04CEF8044085E7C4
:1053A000DEF8044044F48044CEF804407EE7DEF8A2
:1053B000044044F44044CEF8044077E7039C24F4CE
:1053C0000044039480E70333C26A92B2C3F38F03AD
:1053D0009A4203D2836943F0200383610023009340
:1053E0000B8C4A788969FFF737FC002004B070BD48
:1053F000000004400000F81F03332A6992B2C3F38F
:105400008F039A42EAD2836943F080638361E5E7C0
:1054100030B583B0044600230193FFF7CFFB102182
:105420002046FFF7D1FB054600B101252046FFF7D6
:10543000F0FB00B1012500220AE004EB4211D1F893
:10544000003523F0802343F08043C1F8003501325A
:105450000F2AF2D9002100E001310F2916D804EB00
:10546000411000F5A062D0F8003523F4004343F06A
:105470004043C0F80035019B01330193019BB3F514
:105480007A7FE9D81368002BF5DBE5E74FF0FF33AF
:10549000C4F8143463612046FFF78AFB284603B042
:1054A00030BD0000002800F0FF8170B582B00446D6
:1054B000036813F0010F29D0954B9B6803F00C0390
:1054C000042B1AD0924B9B6803F00C03082B0FD0CF
:1054D0006368B3F5803F40D0002B54D18C4B1A68E1
:1054E00022F480321A601A6822F480221A6039E0AD
:1054F000874B5B6813F4800FEAD0854B1B6813F46D
:10550000003F03D06368002B00F0D081236813F0C4
:10551000020F74D07E4B9B6813F00C0F5ED07C4B57
:105520009B6803F00C03082B53D0E368002B00F0BA
:105530008980774A136843F00103136001F0B2F9E0
:105540000546734B1B6813F0020F72D101F0AAF9E4
:10555000401B0228F5D90320ADE16D4A136843F4DE
:105560008033136063682BB301F09CF90546684BE8
:105570001B6813F4003FC9D101F094F9401B642863
:10558000F5D9032097E1B3F5A02F09D0604B1A6835
:1055900022F480321A601A6822F480221A60E1E74D
:1055A0005B4B1A6842F480221A601A6842F4803217
:1055B0001A60D7E701F076F90546554B1B6813F4DE
:1055C000003FA3D001F06EF9401B6428F5D90320F9
:1055D00071E14F4B5B6813F4800FA6D14C4B1B68F5
:1055E00013F0020F03D0E368012B40F06181484AB9
:1055F000136823F0F803216943EAC10313602368A9
:1056000013F0080F46D0636983B3414A536F43F0E8
:105610000103536701F046F905463D4B5B6F13F0FC
:10562000020F37D101F03EF9401B0228F5D90320C3
:1056300041E1374A136823F0F803216943EAC103C3
:105640001360DCE7324A136823F00103136001F0B2
:1056500029F905462E4B1B6813F0020FCFD001F03D
:1056600021F9401B0228F5D9032024E1284A536F71
:1056700023F00103536701F015F90546244B5B6FD6
:1056800013F0020F06D001F00DF9401B0228F5D9E6
:10569000032010E1236813F0040F7DD01C4B1B6C1A
:1056A00013F0805F1ED11A4B1A6C42F080521A64BC
:1056B0001B6C03F080530193019B0125154B1B6864
:1056C00013F4807F10D0A368012B25D0002B3BD191
:1056D0000F4B1A6F22F001021A671A6F22F00402B0
:1056E0001A671EE00025E9E70A4A136843F480734D
:1056F000136001F0D7F80646064B1B6813F4807F51
:10570000E1D101F0CFF8801B6428F5D90320D2E065
:1057100000380240007000406E4A136F43F00103EE
:105720001367A36833B301F0BDF80646694B1B6FDE
:1057300013F0020F2FD101F0B5F8801B41F288332E
:105740009842F3D90320B6E0052B09D0614B1A6FBC
:1057500022F001021A671A6F22F004021A67E0E7CA
:105760005C4B1A6F42F004021A671A6F42F0010292
:105770001A67D6E701F096F80646564B1B6F13F0F2
:10578000020F08D001F08EF8801B41F28833984256
:10579000F3D903208FE0FDB9A369002B00F08A80C4
:1057A0004C4A926802F00C02082A58D0022B19D0F9
:1057B000484A136823F08073136001F073F80446BD
:1057C000444B1B6813F0007F47D001F06BF8001BBF
:1057D0000228F5D903206EE03E4A136C23F0805373
:1057E0001364D9E73B4A136823F08073136001F018
:1057F00059F80546374B1B6813F0007F06D001F0BF
:1058000051F8401B0228F5D9032054E0E369226ACD
:105810001343626A43EA8213A26A5208013A43EAD6
:105820000243E26A43EA026343F00053294A5360A9
:10583000136843F08073136001F034F80446254B7D
:105840001B6813F0007F06D101F02CF8001B022822
:10585000F5D903202FE000202DE000202BE01D4A89
:105860005268012B29D002F48003E1698B4226D1D2
:1058700002F03F03216A8B4223D1616A47F6C0736D
:105880001340B3EB811F1ED102F44031A36A5B08C1
:10589000013BB1EB034F18D102F07062E36AB2EB47
:1058A000036F14D1002006E001207047012002E0C0
:1058B000012000E0002002B070BD0120FBE70120C4
:1058C000F9E70120F7E70120F5E70120F3E70120E0
:1058D000F1E700BF0038024008B5264B9B6803F093
:1058E0000C03042B41D0082B41D1224B5A6802F003
:1058F0003F025B6813F4800F12D01E4B5968C1F34E
:1059000088111D480023A1FB0001FBF7FDF9194B8D
:105910005B68C3F3014301335B00B0FBF3F008BDE8
:10592000144B5868C0F388104FEA401CBCEB000CC5
:105930006EEB0E0E4FEA8E1343EA9C634FEA8C1116
:10594000B1EB0C0163EB0E03DB0043EA5173C900BA
:1059500011EB000C43F10003990200234FEA8C2065
:1059600041EA9C51FBF7D0F9D1E70348D7E7034858
:10597000D5E700BF0038024040787D010024F400E4
:10598000002800F0A08070B50D460446524B1B68FD
:1059900003F00F038B420BD24F4A136823F00F031F
:1059A0000B431360136803F00F038B4240F08D80AC
:1059B000236813F0020F17D013F0040F04D0474AE6
:1059C000936843F4E0539360236813F0080F04D006
:1059D000424A936843F460439360404A936823F0DB
:1059E000F003A1680B439360236813F0010F31D0DB
:1059F0006368012B20D0022B25D0384A126812F0A0
:105A0000020F64D035498A6822F0030213438B6089
:105A100000F048FF0646314B9B6803F00C036268B8
:105A2000B3EB820F16D000F03DFF801B41F28833AC
:105A30009842F0D9032045E0284A126812F4003F4A
:105A4000E0D101203EE0254A126812F0007FD9D152
:105A5000012037E0204B1B6803F00F03AB420AD94B
:105A60001D4A136823F00F032B431360136803F0E0
:105A70000F03AB422DD1236813F0040F06D0174A51
:105A8000936823F4E053E1680B439360236813F0B9
:105A9000080F07D0114A936823F46043216943EA51
:105AA000C1039360FFF718FF0C4B9B68C3F303130C
:105AB0000B4AD35CD8400B4B18600B4B186800F0B6
:105AC000B3FE002070BD012070470120FAE70120DD
:105AD000F8E70120F6E700BF003C02400038024032
